:020000040800F2
:10000000E0060020BD010008C5010008C701000886
:10001000C9010008CB010008CD0100080000000064
:10002000000000000000000000000000CF010008F8
:10003000D101000800000000D3010008D50100082C
:10004000D7010008D7010008D7010008D701000830
:10005000D7010008D7010008D7010008D701000820
:10006000D7010008D7010008D7010008D701000810
:10007000D7010008D7010008D7010008D701000800
:10008000D7010008D7010008D7010008D7010008F0
:10009000D7010008D7010008D7010008D7010008E0
:1000A000D7010008D7010008D7010008D7010008D0
:1000B000D7010008D7010008D7010008D7010008C0
:1000C000D7010008D7010008D7010008D7010008B0
:1000D000D7010008D7010008D7010008D7010008A0
:1000E000D7010008D7010008D701000800F002F886
:1000F00000F055F814A696E8000CB244B344DA4573
:1001000001D100F04CF8BAE80F000FA696E83000D5
:10011000A5EB040504EB0607AAEB0704A7F101070A
:100120004FEA15154FEA3414A4F10104AC4201D38F
:1001300000F035F813F0010F18BFFB1A43F001036C
:1001400000F001F8DBE71847EC1000000C1100008C
:10015000103A24BF78C878C1FAD8520724BF30C8F3
:1001600030C144BF04680C60704700007047000055
:100170000023002400250026103A28BF78C1FBD8B0
:10018000520728BF30C148BF0B607047782900F084
:100190007580002070471FB51FBD10B510BD00F061
:1001A00039F91146FFF7F7FF00F022FF00F057F989
:1001B00003B4FFF7F2FF03BC00F05EF90948804783
:1001C00009480047FEE7FEE7FEE7FEE7FEE7FEE739
:1001D000FEE7FEE7FEE7FEE704480549054A064B51
:1001E00070470000B90A0008ED000008E000002098
:1001F000E0060020E0020020E00200200FB40449E5
:1002000010B503AA029800F0D7F810BC5DF814FBF3
:10021000700000202DE9F0410E46044600202062C7
:100220002046E168884730B3252805D0D4E901216C
:100230009047206A401CF2E7E16820460027884783
:10024000050018D0A5F14100192802D820354FF437
:1002500000673246294620462760FFF797FF40B1E6
:10026000012804D0F61D26F007060836D8E7361D0B
:10027000D6E72846DAE7206ABDE8F08170B5044683
:100280000D4621461068AFF300802188090502D58C
:100290000F4A7A4402E00E4A7A440E32002104F1F9
:1002A000240305E000F00F060009965D5E54491C2A
:1002B0000028F7D120780023000704D5702D02D044
:1002C00009B1022311322046BDE8704000F01BB88E
:1002D000620F000010B5044603E000F077FE401CFA
:1002E00009D014F8010B05490028F6D1BDE81040EB
:1002F0000A2000F06BBE4FF0FF3010BD70000020F0
:100300007047704770472DE9F0470D469946924671
:10031000044600F124080168880604D5E06921F04C
:100320001001216000E00120A84201DD471B00E030
:100330000027A1697A1902EB0900081AA061207848
:10034000C00602D42046AFF30080002608E0D4E9BE
:1003500001211AF806009047206A401C761C206292
:100360004E45F4DB2078C0060AD52046AFF3008066
:1003700006E0D4E9012130209047206A401C206229
:10038000381EA7F10107F4DC07E0D4E9012118F8D1
:1003900005009047206A401C2062281EA5F1010537
:1003A000F3DC2046AFF300802078000602D502205F
:1003B000BDE8F0870120FBE7074B70B50D467B4495
:1003C00000F011F80446284600F020F810B14FF074
:1003D000FF3070BD204670BD0B0C000001694A1C47
:1003E00002610878704700B58FB0CDE90131002176
:1003F000059105497944CDE9031011466846FFF798
:1004000009FF0FB000BD0000E5FFFFFF007B00F01B
:1004100080007047754600F02BF8AE46050069462F
:10042000534620F00700854618B020B5FFF7D4FEEC
:10043000BDE820404FF000064FF000074FF00008E5
:100440004FF0000BAC46ACE8C009ACE8C009ACE822
:10045000C009ACE8C00921F007018D46704710B50E
:100460000446AFF300802046BDE81040FFF7A0BE71
:10047000004870470800002001491820ABBEFEE785
:10048000260002007047000070B50646052014469D
:100490000D4600F099FA00F0FB01052000F044FD44
:1004A0000A2000F091FA40F080010A2000F03CFDA3
:1004B0003DB1013E16F8011F092000F035FD013D58
:1004C000F8D10120032100F02FFDFF25052000F0C9
:1004D0007BFA013D290602D010F00400F6D022205C
:1004E00000F072FA2070212000F06EFA607070BD8A
:1004F000CA7802F00F0CD30644BF8B784CEA030C89
:100500002DE9F04709880B0625D082465AF8144B8E
:1005100000F1100E00254FF001094FF00F080027E1
:1005200006E000BF1E600137082F05F1040511D059
:1005300009FA07F60E42F6D008FA05F324EA030397
:100540000CFA05F41C43282A5346EBD0482AEAD17A
:100550007346E7E70460B1F5807F38BFBDE8F087F8
:10056000436800F1100E00F1140900254FF4807A61
:100570004FF00F08002705E034600137082F05F120
:10058000040512D00AFA07F404EA0106A642F4D1DF
:1005900008FA05F6B3430CFA05F63343282A4E460B
:1005A000EAD0482AE9D17646E6E74360BDE8F0871D
:1005B000416170470161704710B582B004460D205B
:1005C000002100F0B1FC42F2930020800DF1040CF8
:1005D0000C20214602222346CDF800C000F0FEF890
:1005E00008B102B010BD00214FF0FF32A3185B78B4
:1005F0000132032A81EA0301F8D12279914218BF1E
:10060000022002B010BD000010B586B08DF80800C1
:1006100010688DF809101968CDF80A0090880491C7
:1006200002A9ADF80E0005AC0E200C220B4600947A
:1006300000F0D4F808B1022406E00446082000F0D7
:10064000C3F9000758BF0224204606B010BD0000C1
:10065000B0B588B00820012100F064F940F2002014
:1006600040F60044C1F20300C4F201040DF1060596
:10067000CDF8060020462946FFF73AFF4FF4807078
:10068000ADF8060020462946FFF732FF20464FF41A
:100690000071FFF78FFF20464FF48071FFF78AFF4C
:1006A0000920012100F03EF94FF48040012100F0C3
:1006B0002DF94EF20000C1F60300079007A920466D
:1006C000FFF716FF1020CDF816004FF08270CDF81E
:1006D0000A000020CDF80E004FF00070CDF8120097
:1006E0000720A4F55444ADF81A000DF10A01204684
:1006F00000F0BEF92046012100F0A6F901200F21EB
:1007000000F012FC2A208D2100F00EFC2B203E214F
:1007100000F00AFC2D201E2100F006FC2C200021F8
:1007200000F002FC1520402100F0FEFB11203D21CD
:1007300000F0FAFB142000F047F9142000F044F90F
:1007400040F00301142000F0EFFB08B0B0BD000042
:10075000B0B582B00C4605460D20072100F0E4FB41
:10076000257001AD0C20214601222346009500F0A2
:1007700035F801991029014618BF0221002818BF39
:100780000221084602B0B0BD10B586B047F2930111
:10079000ADF80B10016800790DF10B04CDF80D10C8
:1007A0008DF81100E21D20460721FFF76DFE0DF1C7
:1007B000140C0C20214609222346CDF800C000F07D
:1007C0000DF805999DF80B200023182918BF1A462B
:1007D000002818BF1A46D0B206B010BD2DE9F04768
:1007E0009846164605460C280F4605D00E2D07D113
:1007F00011244FF0120906E031244FF0770902E08E
:1008000001244FF0000909F18001022000F08CFB67
:10081000042000F0D9F800F07F01042000F084FBF0
:100820000A2000F0D1F840F080010A2000F07CFBA3
:100830000120002100F078FB3EB1013F17F8011FB5
:10084000092000F071FB013EF8D10120294600F09B
:100850006BFB0C2D07D10D2000F0B6F840F08001A5
:100860000D2000F061FBDDF820A04FF63007CFF639
:10087000FF7700BF042000F0A7F801373AD2064600
:100880000442F7D00D2000F09FF800F07F010D200A
:1008900000F04AFB062000F097F810F01B0F31D152
:1008A00009EA06000C2D00F0010520D10A2000F015
:1008B0008BF806460C2000F087F810F0070040EA9D
:1008C000C600A0F1080008BFF000CAF80000012E21
:1008D00098BF0126A8F10104102E28BF102600BFE2
:1008E000092000F071F8013E04F8010FF8D1284604
:1008F000BDE8F0870D2000F067F800F07F010D20C3
:1009000000F012FB02252846BDE8F087002941F2DD
:100910001C01C4F202010A680CBF22EA0000104365
:1009200008607047002941F21801C4F202010A6808
:100930000CBF22EA000010430860704710B541F276
:100940000404C4F20204226802F00C02082A41F2F4
:100950000022C0F27A0212D12368D4F800C0C3F397
:10096000834E5FEACC330EF1020C02D523689B0361
:1009700003D540F60012C0F23D020CFB02F2026009
:10098000226841F22423C2F30312C0F600039A5CEA
:100990000168D14041602268C2F302229A5C21FAC8
:1009A00002F282602268C2F3C2229A5C41F22023E2
:1009B000D140C1602268C0F60003C2F381329A5C64
:1009C000B1FBF2F1016110BD70B543F60005C4F250
:1009D000000505F55444064620464FF40071FFF724
:1009E000E7FD76002846022100F038F80028F9D00B
:1009F00046F08000C1B2284600F038F828460121B0
:100A000000F02CF80028F9D0284600F02DF800BF9F
:100A10002846022100F022F80028F9D028460021BB
:100A200000F024F82846012100F018F80028F9D039
:100A3000284600F019F8054620464FF40071FFF7EC
:100A4000B9FDE8B270BD00000288002918BF01217D
:100A500022F0400242EA811101807047008908407B
:100A600018BF01207047000080897047818170475E
:100A70002DE9F04102880B8802F4415C4A88B1F804
:100A800004E043EA0C03CC881A430D8942EA0E02C3
:100A90004E8922438F892A43B1F80E8032433A436C
:100AA00042EA08020280828B22F400628283098A71
:100AB0000182BDE8F081000082B041F20400C4F27E
:100AC000020050F8041C002241F0010140F8041C0F
:100AD0000168CFF6FF021140016050F8041C4FF688
:100AE000FF72CFF6F662114040F8041C50F8041C67
:100AF00021F4802140F8041C016821F4FE0101600A
:100B00004FF41F01416000210191009150F8041C35
:100B100041F4803140F8041C50F8041C01F4003109
:100B20000091019901310191009919B90199B1F52B
:100B3000A06FF1D150F8041C890354BF002101219A
:100B400000910099012936D142F20001C4F202015C
:100B50000A6842F010020A600A6822F007020A607E
:100B60000A6842F002020A600168016001680160DF
:100B7000016841F480610160016821F47C11016029
:100B8000016841F4E811016050F8041C41F08071E3
:100B900040F8041C50F8041C8901FBD5016821F0C1
:100BA00003010160016841F002010160016801F088
:100BB0000C010829FAD14EF60850CEF200004FF091
:100BC0000061016002B070470288002918BF01214E
:100BD00022F001021144018070470000808C7047B0
:100BE000B0B5028C22F010020284038C8288B0F827
:100BF00018E00C894D88B1F800C02C4343F2004541
:100C000023F02003C4F20105A84243EA041305D0EF
:100C100042F60044C4F20104A04211D14C896FF0A5
:100C2000400523F0C00305EA04148D88234343EAFA
:100C300005138C89CD8922F440622C4342EA840258
:100C40002EF4E64545EA0C2582800583C988018794
:100C50000384B0BD028B22F4006242EA01210183C9
:100C600070470000018770478184704740F6FF336A
:100C7000B0F800C0C4F2000398420FDCB0F1804F1E
:100C80001ED040F20043C4F20003984218D040F650
:100C90000003C4F20003984212D016E040F600436D
:100CA000C4F2000398420BD043F20043C4F20103A4
:100CB000984205D042F60043C4F20103984204D1A1
:100CC0004B882CF0700243EA020C41F2004240F4DF
:100CD0008063C4F20002934204D0CA882CF44073AB
:100CE00042EA030CA0F800C08A8883058285A0F13F
:100CF0008042A2F5963243EA92220B88072A0385A6
:100D000007D8012303FA02F212F0E50F1CBF097A9B
:100D1000018601218182704780B588B001200121C0
:100D2000FFF7F4FD04200121FFF7FCFD0220C1F6CE
:100D30000300CDF8120040F60000C4F201000DF1EE
:100D40001201FFF7D5FB8F20CDF81A0041F61F40A6
:100D5000CDF816000DF116014FF08040FFF786FF29
:100D60004FF080400121FFF72FFF6020C0F201000B
:100D7000CDF80200482002900DF102014FF08040B2
:100D8000FFF72EFF4FF080400821FFF763FF08B008
:100D900080BD000010B584B002200121FFF7B6FD30
:100DA0004FF6FF7040F20044CDF80A0048F69F402D
:100DB000C4F20004CDF806000DF106012046FFF74D
:100DC00055FF20460121FFF7FFFE04B010BD0000D3
:100DD000B0B586B044F204000121FFF7A3FD40F254
:100DE000002040F60004C1F60300C4F2010405AD82
:100DF000059020462946FFF77BFB40F20040C0F2F9
:100E00000340059020462946FFF772FB2020C1F2DF
:100E10000300059020462946FFF76AFB4FF4165061
:100E2000019000204FF4402104F5405402900391BA
:100E3000ADF8100001A9204600F016F82046012167
:100E400000F002F806B0B0BD8289002918BF012168
:100E500022F4005242EA4131818170470088084003
:100E600018BF01207047000070B586B00446008AA4
:100E70000D46C98820F4405008432082A0894EF6D0
:100E8000F3110840A9882A896B8908431043184345
:100E9000A081A08AA98920F44070084301AEA082F5
:100EA0003046FFF74BFD43F6000106F10800C4F29F
:100EB00001018C4208BF06F10C0000681922B4F948
:100EC0000C1050432A680123B1F1FF3FC8BF022331
:100ED00002FA03F1B0FBF1F048F21F51C5F2EB1139
:100EE000A0FB01235A096FF0630302FB0300B4F96E
:100EF0000C300326B3F1FF3FC8BF042600FA06F00A
:100F000000F13200A0FB01014FF00700C8BF0F2025
:100F100000EA511040EA0210208106B070BD0000C6
:100F20006FF35F2181807047F0B581B043F6000513
:100F3000C4F2000505F554440E46074620464FF41A
:100F40000071FFF735FB7F0028460221FFF786FD81
:100F50000028F9D007F07E012846FFF787FD00BF83
:100F600028460121FFF77AFD0028F9D02846FFF72F
:100F70007BFD00BF28460221FFF770FD0028F9D055
:100F800028463146FFF772FD28460121FFF766FD2E
:100F90000028F9D02846FFF767FD20464FF400717E
:100FA00001B0BDE8F040FFF705BB0000B0B540F26E
:100FB0000045C4F20005044628460021FFF754FE10
:100FC0002846FFF70BFEA042FAD3B0BDB0B543F6FA
:100FD0000005C4F20105044681B22846FFF7A0FFD0
:100FE00028464021FFF73AFF0028F9D02046B0BD3F
:100FF00082B0FFF7EDFEFFF7CDFEFFF729FBFFF70D
:101000008BFE4FF4FA70FFF7D1FF40F2C80B40F2AD
:10101000CC0540F6000640F2680940F2C40855A429
:10102000C2F2000B0227C2F20005C4F20106C2F2AE
:101030000009C2F2000825E04FF00F0A5EA0FFF79A
:1010400049F96420FFF7B2FF2846FFF79DFB40F205
:1010500000020E200221C2F200024B46FFF7D4FA32
:101060005FA0FFF737F94FF080405146FFF7FAFDD8
:1010700041F28830FFF79AFF0020C8F800005BA01B
:10108000FFF728F92046FFF725F94FF080400621A9
:10109000FFF7E8FD4FF4FA70FFF788FF8BF8007058
:1010A00026202946FFF754FB8BF800006420FFF749
:1010B0007DFF30462021FFF77DFA9BF800000028D5
:1010C000EED12FA0FFF706F92846FFF775FA8BF847
:1010D000000028682979C9F80000642089F8041004
:1010E000FFF764FF9BF80000C0BBA24699F8001010
:1010F00099F8012099F8023099F8037099F80440A2
:1011000024A0CDE90074FFF779F899F8007099F8F8
:10111000013099F8022099F8031099F80400742F0F
:1011200008BFBC2B0AD1E62A08D1032906D12D28F5
:1011300004D10120544602270EE000BFC12F5446BF
:101140004FF0020708BF092B08D1982A06D11D29A4
:1011500004D14D2802D10220C8F80000D8F80000C0
:1011600001283FF469AF02287FF489AF4FF0190AD4
:1011700016A064E75374617274205246494400001B
:1011800046696E6420796F757220494420636172EC
:101190006400000049442063617264206E756D62D2
:1011A00065723A2025782C2025782C2025782C2053
:1011B00025782C2025780A00436F727265637420AD
:1011C000696420636172645F31000000436F727272
:1011D00065637420696420636172645F320000009B
:1011E00053756365737366756C6C79005246494438
:1011F0002053544F500000003031323334353637ED
:10120000383941424344454640305800303132334A
:10121000343536373839616263646566403078004A
:101220000204060800000000010203040102030496
:1012300006070809581200080000002008000000F6
:10124000500100086012000808000020D8060000C5
:101250007001000800000000FFFFFFFFFFFF00001B
:04000005080000ED02
:00000001FF
