:020000040800F2
:10000000B806002099010008A1010008A30100081A
:10001000A5010008A7010008A901000800000000D0
:10002000000000000000000000000000AB0100081C
:10003000AD01000800000000AF010008B101000898
:10004000B3010008B3010008B3010008B3010008C0
:10005000B3010008B3010008B3010008B3010008B0
:10006000B3010008B3010008B3010008B3010008A0
:10007000B3010008B3010008B3010008B301000890
:10008000B3010008B3010008B3010008B301000880
:10009000B3010008B3010008B3010008B301000870
:1000A000B3010008B3010008B3010008B301000860
:1000B000B3010008B3010008B3010008B301000850
:1000C000B3010008B3010008B3010008B301000840
:1000D000B3010008B3010008B3010008B301000830
:1000E000B3010008B3010008B301000800F002F8F2
:1000F00000F042F814A696E8000CB244B344DA4586
:1001000001D100F039F8BAE80F000FA696E83000E8
:10011000A5EB040504EB0607AAEB0704A7F101070A
:100120004FEA15154FEA3414A4F10104AC4201D38F
:1001300000F022F813F0010F18BFFB1A43F001037F
:1001400000F001F8DBE71847340A0000440A000019
:10015000704700000023002400250026103A28BF25
:1001600078C1FBD8520728BF30C148BF0B60704729
:100170001FB51FBD10B510BD00F047F81146FFF7C1
:10018000F7FF00F0D9FC00F065F803B4FFF7F2FFC9
:1001900003BC00F06DF8000009488047094800479B
:1001A000FEE7FEE7FEE7FEE7FEE7FEE7FEE7FEE727
:1001B000FEE7FEE704480549054A064B7047000084
:1001C000F9050008ED000008B8000020B80600207E
:1001D000B8020020B802002010B5044603E000F089
:1001E00099FC401C09D014F8010B05490028F6D1F0
:1001F000BDE810400A2000F08DBC4FF0FF3010BD6C
:1002000060000020704770477047754600F02CF87A
:10021000AE4605006946534620F00700854618B0F3
:1002200020B5FFF7C7FFBDE820404FF000064FF0B4
:1002300000074FF000084FF0000BAC46ACE8C009D7
:10024000ACE8C009ACE8C009ACE8C00921F007017E
:100250008D46704710B50446AFF300802046BDE8D8
:100260001040FFF792BF00000048704700000020D8
:1002700001491820ABBEFEE72600020070470000CF
:10028000CA7802F00F0CD30644BF8B784CEA030CFB
:100290002DE9F04709880B0625D082465AF8144B01
:1002A00000F1100E00254FF001094FF00F08002754
:1002B00006E000BF1E600137082F05F1040511D0CC
:1002C00009FA07F60E42F6D008FA05F324EA03030A
:1002D0000CFA05F41C43282A5346EBD0482AEAD1ED
:1002E0007346E7E70460B1F5807F38BFBDE8F0876B
:1002F000436800F1100E00F1140900254FF4807AD4
:100300004FF00F08002705E034600137082F05F192
:10031000040512D00AFA07F404EA0106A642F4D151
:1003200008FA05F6B3430CFA05F63343282A4E467D
:10033000EAD0482AE9D17646E6E74360BDE8F0878F
:10034000416170470161704710B500F037F840F621
:100350000044C4F2010420464FF40071FFF7F2FF9D
:1003600020464FF48071FFF7EDFF01200F2100F0D0
:100370007FFB2A208D2100F07BFB2B203E2100F00B
:1003800077FB2D201E2100F073FB2C20002100F0B4
:100390006FFB1520402100F06BFB11203D2100F088
:1003A00067FB142000F0B0F8142000F0ADF840F026
:1003B00003011420BDE8104000F05ABBB0B586B070
:1003C0000920012100F04EF84FF48040012100F097
:1003D0003DF840F2002040F60044C1F20300C4F2B0
:1003E000010405AD059020462946FFF749FF4FF46B
:1003F0008070ADF8140020462946FFF741FF4EF209
:100400000000C1F60300059020462946FFF738FF9B
:100410001020CDF80E004FF08270CDF802000020C1
:10042000CDF806004FF00070CDF80A000720A4F5C3
:100430005444ADF812000DF10201204600F0B8F866
:100440002046012100F0A0F806B0B0BD002941F21D
:100450001C01C4F202010A680CBF22EA000010432A
:1004600008607047002941F21801C4F202010A68CD
:100470000CBF22EA000010430860704710B541F23B
:100480000404C4F20204226802F00C02082A41F2B9
:100490000022C0F27A0212D12368D4F800C0C3F35C
:1004A000834E5FEACC330EF1020C02D523689B0326
:1004B00003D540F60012C0F23D020CFB02F20260CE
:1004C000226840F66C33C2F30312C0F600039A5C54
:1004D0000168D14041602268C2F302229A5C21FA8D
:1004E00002F282602268C2F3C2229A5C40F668334C
:1004F000D140C1602268C0F60003C2F381329A5C29
:10050000B1FBF2F1016110BD70B543F60005C4F214
:10051000000505F55444064620464FF40071FFF7E8
:100520000FFF76002846022100F038F80028F9D0A5
:1005300046F08000C1B2284600F038F82846012174
:1005400000F02CF80028F9D0284600F02DF800BF64
:100550002846022100F022F80028F9D02846002180
:1005600000F024F82846012100F018F80028F9D0FE
:10057000284600F019F8054620464FF40071FFF7B1
:10058000E1FEE8B270BD00000288002918BF012119
:1005900022F0400242EA8111018070470089084040
:1005A00018BF012070470000808970478181704723
:1005B0002DE9F04102880B8802F4415C4A88B1F8C9
:1005C00004E043EA0C03CC881A430D8942EA0E0288
:1005D0004E8922438F892A43B1F80E8032433A4331
:1005E00042EA08020280828B22F400628283098A36
:1005F0000182BDE8F081000082B041F20400C4F243
:10060000020050F8041C002241F0010140F8041CD3
:100610000168CFF6FF021140016050F8041C4FF64C
:10062000FF72CFF6F662114040F8041C50F8041C2B
:1006300021F4802140F8041C016821F4FE010160CE
:100640004FF41F01416000210191009150F8041CFA
:1006500041F4803140F8041C50F8041C01F40031CE
:100660000091019901310191009919B90199B1F5F0
:10067000A06FF1D150F8041C890354BF002101215F
:1006800000910099012936D142F20001C4F2020121
:100690000A6842F010020A600A6822F007020A6043
:1006A0000A6842F002020A600168016001680160A4
:1006B000016841F480610160016821F47C110160EE
:1006C000016841F4E811016050F8041C41F08071A8
:1006D00040F8041C50F8041C8901FBD5016821F086
:1006E00003010160016841F002010160016801F04D
:1006F0000C010829FAD14EF60850CEF200004FF056
:100700000061016002B070470288002918BF012112
:1007100022F001021144018070470000808C704774
:10072000B0B5028C22F010020284038C8288B0F8EB
:1007300018E00C894D88B1F800C02C4343F2004505
:1007400023F02003C4F20105A84243EA041305D0B4
:1007500042F60044C4F20104A04211D14C896FF06A
:10076000400523F0C00305EA04148D88234343EABF
:1007700005138C89CD8922F440622C4342EA84021D
:100780002EF4E64545EA0C2582800583C988018759
:100790000384B0BD028B22F4006242EA012101838E
:1007A000704700008184704740F6FF33B0F800C006
:1007B000C4F2000398420FDCB0F1804F1ED040F22B
:1007C0000043C4F20003984218D040F60003C4F27C
:1007D0000003984212D016E040F60043C4F2000332
:1007E00098420BD043F20043C4F20103984205D073
:1007F00042F60043C4F20103984204D14B882CF026
:10080000700243EA020C41F2004240F48063C4F2F9
:100810000002934204D0CA882CF4407342EA030CCD
:10082000A0F800C08A8883058285A0F18042A2F5E5
:10083000963243EA92220B88072A038507D80123C0
:1008400003FA02F212F0E50F1CBF097A01860121BA
:100850008182704780B588B001200121FFF7F6FD45
:1008600004200121FFF7FEFD0220ADF81200182040
:100870008DF8150040F60000C4F201000DF11201E0
:10088000FFF7FEFC42F20F70CDF81A004720CDF8BA
:1008900016000DF116014FF08040FFF785FF4FF075
:1008A00080400121FFF730FF6020C0F20400CDF846
:1008B0000200002002900DF102014FF08040FFF78E
:1008C0002FFF4FF080400821FFF764FF4FF080407A
:1008D0000121FFF719FF08B080BD000010B584B0FA
:1008E00002200121FFF7B2FD4FF6FF7040F20044F5
:1008F000CDF80A0048F69F40C4F20004CDF8060087
:100900000DF106012046FFF74FFF20460121FFF7BA
:10091000FBFE04B010BD0000B0B586B044F2040088
:100920000121FFF79FFD40F2002040F60004C1F6D0
:100930000300C4F2010405AD059020462946FFF7E7
:100940009FFC40F20040C0F203400590204629463B
:10095000FFF796FC2020C1F20300059020462946AF
:10096000FFF78EFC4FF41650019000204FF4402109
:1009700004F5405402900391ADF8100001A92046FF
:1009800000F016F82046012100F002F806B0B0BDD4
:100990008289002918BF012122F4005242EA413124
:1009A000818170470088084018BF0120704700000F
:1009B00070B586B00446008A0D46C98820F44050C0
:1009C00008432082A0894EF6F3110840A9882A899D
:1009D0006B89084310431843A081A08AA98920F499
:1009E0004070084301AEA0823046FFF747FD43F652
:1009F000000106F10800C4F201018C4208BF06F1B3
:100A00000C0000681922B4F90C1050432A68012325
:100A1000B1F1FF3FC8BF022302FA03F1B0FBF1F0CE
:100A200048F21F51C5F2EB11A0FB01235A096FF0E8
:100A3000630302FB0300B4F90C300326B3F1FF3F5C
:100A4000C8BF042600FA06F000F13200A0FB010145
:100A50004FF00700C8BF0F2000EA511040EA021013
:100A6000208106B070BD00006FF35F218180704768
:100A7000F0B581B043F60005C4F2000505F5544415
:100A80000E46074620464FF40071FFF759FC7F00E1
:100A900028460221FFF782FD0028F9D007F07E01E9
:100AA0002846FFF783FD00BF28460121FFF776FDAA
:100AB0000028F9D02846FFF777FD00BF284602211D
:100AC000FFF76CFD0028F9D028463146FFF76EFD90
:100AD00028460121FFF762FD0028F9D02846FFF7DC
:100AE00063FD20464FF4007101B0BDE8F040FFF710
:100AF00029BC0000B0B540F20045C4F20005044630
:100B000028460021FFF74EFE2846FFF707FEA042C9
:100B1000FAD3B0BDB0B543F60005C4F201050446F2
:100B200081B22846FFF7A0FF28464021FFF73AFF91
:100B30000028F9D02046B0BDFFF7EEFEFFF7CEFE4D
:100B4000FFF702FCFFF786FE04A400BF2046FFF774
:100B500043FB6420FFF7CEFFF8E700BF53746172D8
:100B600074205246494400000204060800000000B8
:100B70000102030401020304060708098C0B0008A4
:0C0B800000000020B8060000540100082E
:04000005080000ED02
:00000001FF
