:020000040800F2
:100000006006002099010008A1010008A301000872
:10001000A5010008A7010008A901000800000000D0
:10002000000000000000000000000000AB0100081C
:10003000AD01000800000000AF010008B101000898
:10004000B3010008B3010008B3010008B3010008C0
:10005000B3010008B3010008B3010008B3010008B0
:10006000B3010008B3010008B3010008B3010008A0
:10007000B3010008B3010008B3010008B301000890
:10008000B3010008B3010008B3010008B301000880
:10009000B3010008B3010008B3010008B301000870
:1000A000B3010008B3010008B3010008B301000860
:1000B000B3010008B3010008B3010008B301000850
:1000C000B3010008B3010008B3010008B301000840
:1000D000B3010008B3010008B3010008B301000830
:1000E000B3010008B3010008B301000800F002F8F2
:1000F00000F042F814A696E8000CB244B344DA4586
:1001000001D100F039F8BAE80F000FA696E83000E8
:10011000A5EB040504EB0607AAEB0704A7F101070A
:100120004FEA15154FEA3414A4F10104AC4201D38F
:1001300000F022F813F0010F18BFFB1A43F001037F
:1001400000F001F8DBE718473C0700004C0700000F
:10015000704700000023002400250026103A28BF25
:1001600078C1FBD8520728BF30C148BF0B60704729
:100170001FB51FBD10B510BD00F031F81146FFF7D7
:10018000F7FF00F05DFB00F04FF803B4FFF7F2FF5C
:1001900003BC00F057F800000948804709480047B1
:1001A000FEE7FEE7FEE7FEE7FEE7FEE7FEE7FEE727
:1001B000FEE7FEE704480549054A064B7047000084
:1001C000C9050008ED00000860000020600600205E
:1001D000600200206002002070477047704775463B
:1001E00000F02CF8AE4605006946534620F00700A3
:1001F000854618B020B5FFF7DDFFBDE820404FF081
:1002000000064FF000074FF000084FF0000BAC461F
:10021000ACE8C009ACE8C009ACE8C009ACE8C0096A
:1002200021F007018D46704710B50446AFF30080FA
:100230002046BDE81040FFF7A8BF00000048704707
:100240000000002001491820ABBEFEE72600020096
:100250007047000080B582B00220ADF80400102085
:100260008DF8070003208DF8060040F60000C4F268
:10027000010001A900F002F802B080BD88B007902B
:100280000691002005900490039002900190009048
:100290000698C07800F00F0005900698C078C00658
:1002A000002806D5FFE70698817805980843059051
:1002B000FFE70698007800284BD0FFE70798006812
:1002C000019000200390FFE7039807283DD8FFE73F
:1002D00003990120884002900698008802990840FE
:1002E00004900498029988422AD1FFE7039880007D
:1002F000029002990F20884000900099019888434D
:1003000001900598029900FA01F1019808430190C3
:100310000698C078282806D1FFE703990120884075
:10032000079948610BE00698C078482806D1FFE796
:1003300003990120884007990861FFE7FFE7FFE77D
:10034000FFE7039801300390BEE701980799086022
:10035000FFE706980088B0F5807F50DBFFE707983D
:100360004068019000200390FFE70398072842D8D7
:10037000FFE7039800F108010120884002900698E9
:1003800000880299084004900498029988422DD16F
:10039000FFE703988000029002990F2088400090A8
:1003A00000990198884301900598029900FA01F19B
:1003B0000198084301900698C078282808D1FFE7E3
:1003C000039800F108010120884007994861FFE780
:1003D0000698C078482808D1FFE7039800F1080183
:1003E0000120884007990861FFE7FFE7FFE70398CE
:1003F00001300390B9E7019807994860FFE708B01A
:100400007047000082B00190ADF80210BDF8020004
:100410000199486102B0704782B00190ADF80210B6
:10042000BDF802000199086102B0704782B00190E6
:100430008DF803109DF8030048B1FFE7019A41F2DF
:100440001C01C4F2020108681043086008E0019A28
:1004500041F21C01C4F20201086890430860FFE702
:1004600002B0704782B001908DF803109DF8030030
:1004700048B1FFE7019A41F21801C4F2020108688D
:100480001043086008E0019A41F21801C4F2020129
:10049000086890430860FFE702B0704780B500F03D
:1004A00001F880BD84B000200390029041F2000169
:1004B000C4F20201086840F480300860FFE741F2AE
:1004C0000000C4F20200006800F4003002900398BB
:1004D00001300390FFE702990020019039B9FFE74E
:1004E0000398B0F5A06018BF01200190FFE70198C4
:1004F000C0070028E3D1FFE741F20000C4F2020088
:1005000000688003002803D5FFE70120029002E085
:1005100000200290FFE70298012851D1FFE742F244
:100520000001C4F20201086840F010000860086889
:1005300020F007000860086840F00200086041F2FF
:100540000401C4F2020100910868086008680860AC
:10055000086840F480600860086820F47C10086037
:10056000086840F4E810086041F20001C4F202019A
:10057000086840F080700860FFE741F20000C4F2B4
:10058000020000688001002801D4FFE7F5E741F28E
:100590000401C4F20201086820F003000860086842
:1005A00040F002000860FFE741F20400C4F20200DC
:1005B000006800F00C00082801D0FFE7F4E700E035
:1005C000FFE704B07047000080B541F20002C4F2BA
:1005D0000202106840F00100106041F20401C4F210
:1005E000020108680023CFF6FF0318400860106876
:1005F0004FF6FF73CFF6F66318401060106820F4D2
:1006000080201060086820F4FE00086041F20801B4
:10061000C4F202014FF41F000860FFF73FFF4EF6DF
:100620000851CEF200014FF00060086080BD00006C
:1006300082B001908DF803109DF8030030B1FFE700
:100640000199088840F00100088005E001990888B8
:1006500020F001000880FFE702B0704781B00090F1
:100660000098808C01B0704782B00190ADF8021004
:10067000BDF802000199888402B0704783B00290EF
:1006800001910020ADF8020002980088ADF8020048
:10069000029842F60041C4F20101884225D0FFE7EA
:1006A000029843F20041C4F2010188421DD0FFE7E5
:1006B0000298B0F1804F18D0FFE7029840F2004155
:1006C000C4F20001884210D0FFE7029840F6000112
:1006D000C4F20001884208D0FFE7029840F60041CA
:1006E000C4F2000188420ED1FFE7BDF8020020F0FD
:1006F0007000ADF8020001984188BDF8020008437F
:10070000ADF80200FFE7029841F20001C4F20001D7
:10071000884216D0FFE7029841F20041C4F200017E
:1007200088420ED0FFE7BDF8020020F44070ADF81B
:1007300002000198C188BDF802000843ADF802002C
:10074000FFE7BDF8020002990880019880880299AD
:1007500088850198008802990885029842F6004130
:10076000C4F20101884220D0FFE7029843F2004121
:10077000C4F20101884218D0FFE7029844F2000158
:10078000C4F20101884210D0FFE7029844F2004110
:10079000C4F20101884208D0FFE7029844F6000144
:1007A000C4F20101884205D1FFE70198007A02995D
:1007B0000886FFE702990120888203B07047000095
:1007C00080B582B0042001210191FFF74BFE019911
:1007D0000846FFF72BFE02B080BD000080B584B054
:1007E0000020ADF80C0048F69F41ADF806104FF61A
:1007F000FF71ADF80A10ADF808004FF0804000908E
:100800000DF10601FFF73AFF00980121FFF710FFF5
:1008100004B080BD80B582B0ADF806004FF08040D6
:100820000021FFF721FFFFE74FF08040FFF716FFA1
:10083000BDF80610884201DAFFE7F5E702B080BD97
:1008400080B584B000200390FFF7BAFFFFF702FDE8
:10085000FFF7C4FFFFE740F60000C4F2010000907C
:1008600002210191FFF7D8FD4FF4FA700290FFF7D3
:10087000D1FF00980199FFF7C5FD0298FFF7CAFF65
:10088000E9E700009408000800000020600600006E
:040890005401000807
:04000005080000ED02
:00000001FF
